:1000000003308A00232B00008E30F7002C08F80004
:100010002B08F900FA01F808031D18287908F800E0
:10002000F9010830F702F808031D1828F701202805
:100030000310F81B1F28F90DF80DF7031828F81303
:1000400008002B080319E628B7002F080319E62833
:10005000B702031C30287F30B7070318E62836287C
:100060008130B702031CE6280319E6283708F70099
:10007000F801F901FA01B6012C08B500B5172D08F1
:10008000B4002E08B3001930B7003208B3020318C9
:1000900059280130B40203185928B5020318592809
:1000A000B60203185928B60AB50AB40A3208B307CB
:1000B0008B283108B402031874280130B5020318E4
:1000C0007428B60203187428B60AB50A3108B407B2
:1000D0003208B307031C8B28B40A031D8B28B50A0A
:1000E000031D8B28B60A8B2830088038B502031808
:1000F0008A280130B60203188A28B60A30088038E8
:10010000B5073108B407031C6828B50A031D682821
:10011000B60A68287A14B70B8E2899280310B30DF5
:10012000B40DB50DB60D0310FA0DF90DF80DB80D9F
:100130004528381CA1280310F80CF90CFA0CB80C4F
:10014000A428F7030319E628B81BCD280310B30D24
:10015000B40DB50DB60D3208B3020318B92801303D
:10016000B4020318B928B5020318B928B602031C53
:10017000DC283108B4020318C4280130B502031882
:10018000C428B602031CDC2830088038B5020318E6
:10019000CD280130B602031CDC28FA0A031DDC2836
:1001A000F90A031DDC28F80A031DDC28F70A0319E5
:1001B000E628F80CF90CFA0C2C08B7003008B70642
:1001C000B71FE428F817EA28F813EA28F701F8011E
:1001D000F901FA018A110A12862B2B0803195D29ED
:1001E000B3002F0803195D29B3070318FE287F30D9
:1001F000B302031C5D2903195D2902298130B3076D
:1002000003185D293308F700F801F901FA012C08F9
:10021000B700B7172D08B6002E08B5001830B30088
:10022000B401351C2B293208FA07031C1D29F90AD1
:10023000031D1D29F80A0319B4173108F907031C17
:100240002429F80A0319B4173008AD00AD172D089A
:10025000F8070318B417B40DF80CF90CFA0CB70C26
:10026000B60CB50C0310B30B10290130F7070318B7
:100270005D29F81B4229B70DFA0DF90DF80DF703AA
:1002800003195D29B71F5329FA0A031D5329F90AD7
:10029000031D5329F80A031D5329F80CF90CFA0C15
:1002A000F70A03195D292C08B4003008B406B41FFE
:1002B0005B29F8176129F8136129F701F801F901A1
:1002C000FA018A110A12A32B80308318B006B501F7
:1002D000B6012C08B4003008B4062B080319542AC0
:1002E000B300F7002F0803195D2AB3020319F92997
:1002F000031CB7293008B900B9173108B800320813
:10030000B700B6010310B90CB80CB70CB60CB30BA0
:100310008129B41F8E293514712A351033103516F2
:100320002E3084008313862A3512B41BA129331C76
:10033000AC29B90CB80CB70CB60CF70A03196C2A27
:10034000AC29B91BAF290310B60DB70DB80DB90D07
:10035000F70303196C2AA1293517192A35132C081C
:10036000B400B41FB529B917652AB913652A2F0837
:10037000B300F7002B08B3022C08B900B9172D08F9
:10038000B8002E08B700B6010310B90CB80CB70CB2
:10039000B60CB30BC329B41FD029B514712AB510FC
:1003A0003310B516323084008313862AB512B41B7D
:1003B000E329331CEE29B90CB80CB70CB60CF70ABC
:1003C00003196C2AEE29B91BF1290310B60DB70DDC
:1003D000B80DB90DF70303196C2AE329B517192ACB
:1003E000B5133008B400B41FF729B917652AB9133B
:1003F000652A3008B900B9173108B8003208B700CB
:10040000B41F062AB9133515712A3511B6013310F8
:100410002E3084008313862AB41B2F2A2C08B400A4
:10042000331C192AB90CB80CB70CB60CF70A03190F
:100430006C2AB61F2A2AB70A031D2A2AB80A031DE6
:100440002A2AB90A031D2A2AB90CB80CB70CF70AD4
:1004500003196C2A351BAE29B51BF0294E2A8030B2
:10046000B906B91F372A712A3008B400442A2C086B
:10047000B400B908031D442AB808031D442AB7086C
:10048000031D442AF701652AB91B4E2A0310B60D35
:10049000B70DB80DB90DF70B442A6C2AB41F522AB8
:1004A000B917652AB913652A2F08F7003008B90073
:1004B0003108B8003208B700652A2B08F7002C086D
:1004C000B9002D08B8002E08B7003908F800380820
:1004D000F9003708FA00A42AF701F801F901FA0136
:1004E000A42AB601B709B809B909B609B60A031DA5
:1004F0007F2AB70A031D7F2AB80A0319B90A3518DB
:100500008D29B518CF293519052A342A0008B707CF
:10051000031C902AB80A031D902AB90A0319331440
:1005200084030008B807031C982AB90A0319331476
:1005300084030008801F803AB90703183314351A62
:100540009429B51AD6290C2A8A110A12C12B8E3089
:10055000F7002708F7022808F9002908F800F9171A
:10056000F7080319BE2A0310F908031DBA2AF80870
:100570000319BE2AF90CF80CF70BB32AA81FC52AD9
:10058000F809F909F80A0319F90A8A110A12CA2B9B
:10059000AF010408AE002F10831B2F14280EF03873
:1005A000AA00AA07E23EAB00323EAD0028080F3990
:1005B000AB07AB07AD07E93EAC00AC07AC07270EB5
:1005C0000F39AC07AD07AC0DAD0DAD09AD0D27086A
:1005D0000F39AD07AA0D0730A9000A30AD07AC03EB
:1005E000031CEE2AAC07AB03031CF22AAB07AA03D9
:1005F000031CF62AAA07A903031CFA2A293084003F
:10060000831307302E052E1384072D30040203199F
:100610002E170008F700031D152B2E1B152B2E1A65
:100620001D2BAE19152B2030182BAE152E12303085
:10063000F70777080C1E1A2B9900840A2E1F052B2A
:100640008A110A12D52B03081F398300193083162B
:100650009900A63098009030831298000230A200D2
:10066000A301FF30A60083161F149F141F159F11AE
:1006700007309C0083131F109F141F159F151F1711
:1006800083121F139F1383169F1383121F140030AE
:10069000F80005389200F930831692008312261173
:1006A000260883168700831207110C309700193033
:1006B00095001708CF3997000030F8001F08C73998
:1006C00078049F001F151F19632B83161E088312C1
:1006D000A0001E08A1002108AC002008AB000420E7
:1006E0007A08AA007908A9007808A8007708A70066
:1006F0007A08AE007908AD007808AC007708AB0046
:10070000B201B101B0018F30AF0021287A08AA00F0
:100710007908A9007808A8007708A700AC0122088A
:10072000AB0004202A08AE002908AD002808AC0060
:100730002708AB007A08B2007908B1007808B00049
:100740007708AF00ED287A08AA007908A900780890
:10075000A8007708A700AC012308AB000420831091
:100760002A08AE002908AD002808AC002708AB0015
:100770007A08B2007908B1007808B0007708AF00B5
:1007800064297A08AA007908A9007808A8007708DF
:10079000A700A72A7908A5007808A40010308400D3
:1007A0002108A8002008A700C82A0D300C1ED62B4F
:0E07B00099000A300C1EDA2B99005C2B6300B6
:02400E00313F40
:00000001FF
;PIC16F877A
;CRC=48C4  CREATED="28-nov-16 21:53"
